:020000040000FA
:1020000002EF3FF0FFFFFFFFFFFFFFFFFFFFFFFFBC
:10201000FFFFFFFFFFFFFFFFFFFFFFFFFFFFFFFFD0
:10202000FFFFFFFFFFFFFFFFFFFFFFFFFFFFFFFFC0
:10203000FFFFFFFFFFFFFFFFFFFFFFFFFFFFFFFFB0
:107DC000FFFFFFFFFFFFFFFFFFFFFFFFFFFFFFFFC3
:107DD000FFFFFFFFFFFFFFFFFFFFFFFFFFFFFFFFB3
:107DE000FFFFFFFF000E976E000E906E000E916E6B
:107DF000120060EC3FF016EC3FF0F2EC3EF00BECC2
:107E00003FF01200096A086A076A066A000EF86EF7
:107E1000000143EF3FF0000EC16E060EC06E000E73
:107E2000C36E000EC46E010EC26E1200700ED36ED1
:107E3000000ED26E800E9B6E000EB56ED2AE23EF9A
:107E40003FF025EF3FF01EEF3FF01200056E05C03A
:107E500003F003460346C2500318830B0318C26E97
:107E6000C280C282C2B237EF3FF039EF3FF032EF4B
:107E70003FF0C450046E036AC3500324016E000E29
:107E80000420026E1200F9EC3EF0000E26EC3FF0EA
:107E900001C006F002C007F007BE56EF3FF0020E29
:107EA000075CD8A056EF3FF058EF3FF05BEF3FF094
:107EB000898845EF3FF0899845EF3FF000EF10F0DB
:107EC000000E8D6E000E8C6E000E896E000E8A6E96
:107ED000000E8B6E070E966EED0E926E9368C70EB7
:107EE000946E95680F015E69C40E5D6F3F0E5C6F06
:107EF000070E5F6F2D0E5B6F000E856EF18E120008
:020000040030CA
:0400000003285F3C36
:0200060081FF78
:020000040020DA
:080000000D050F0D00000000CA
:00000001FF
