:020000040000FA
:102000003DEF3FF0FFFFFFFFFFFFFFFFFFFFFFFF81
:10201000FFFFFFFFFFFFFFFFFFFFFFFFFFFFFFFFD0
:107E6000FFFFFFFFFFFFFFFFFFFFFFFFFFFFFFFF22
:107E7000FFFFFFFFFFFFFFFFFFFF000164EF3FF089
:107E8000C30EC216C280BE0EC06E1200C150F00BEF
:107E90000E09C16E000E896E92981200C282C2B2A3
:107EA00054EF3FF056EF3FF04FEF3FF0C450046EF9
:107EB000036AC3500324056E000E0420066E05C03D
:107EC00001F006C002F0120046EC3FF040EC3FF03B
:107ED0004EEC3FF001C007F002C008F00704020EAC
:107EE0000858D8A076EF3FF078EF3FF07BEF3FF0F7
:107EF000898868EF3FF0899868EF3FF000EF10F055
:020000040030CA
:08000000000E181EFF8181FFB4
:020000040020DA
:080000000308090000000000E4
:00000001FF
